{
  "contractName": "Messaging",
  "abi": [
    {
      "anonymous": false,
      "inputs": [
        {
          "indexed": true,
          "internalType": "address",
          "name": "sender",
          "type": "address"
        },
        {
          "indexed": true,
          "internalType": "address",
          "name": "receiver",
          "type": "address"
        },
        {
          "indexed": false,
          "internalType": "string",
          "name": "contentHash",
          "type": "string"
        },
        {
          "indexed": false,
          "internalType": "uint256",
          "name": "timestamp",
          "type": "uint256"
        }
      ],
      "name": "MessageSent",
      "type": "event"
    },
    {
      "inputs": [
        {
          "internalType": "uint256",
          "name": "",
          "type": "uint256"
        }
      ],
      "name": "messages",
      "outputs": [
        {
          "internalType": "address",
          "name": "sender",
          "type": "address"
        },
        {
          "internalType": "address",
          "name": "receiver",
          "type": "address"
        },
        {
          "internalType": "string",
          "name": "contentHash",
          "type": "string"
        },
        {
          "internalType": "uint256",
          "name": "timestamp",
          "type": "uint256"
        }
      ],
      "stateMutability": "view",
      "type": "function",
      "constant": true
    },
    {
      "inputs": [
        {
          "internalType": "address",
          "name": "_receiver",
          "type": "address"
        },
        {
          "internalType": "string",
          "name": "_contentHash",
          "type": "string"
        }
      ],
      "name": "sendMessage",
      "outputs": [],
      "stateMutability": "nonpayable",
      "type": "function"
    },
    {
      "inputs": [],
      "name": "getMessages",
      "outputs": [
        {
          "components": [
            {
              "internalType": "address",
              "name": "sender",
              "type": "address"
            },
            {
              "internalType": "address",
              "name": "receiver",
              "type": "address"
            },
            {
              "internalType": "string",
              "name": "contentHash",
              "type": "string"
            },
            {
              "internalType": "uint256",
              "name": "timestamp",
              "type": "uint256"
            }
          ],
          "internalType": "struct Messaging.Message[]",
          "name": "",
          "type": "tuple[]"
        }
      ],
      "stateMutability": "view",
      "type": "function",
      "constant": true
    },
    {
      "inputs": [
        {
          "internalType": "address",
          "name": "_receiver",
          "type": "address"
        }
      ],
      "name": "getMessagesForReceiver",
      "outputs": [
        {
          "components": [
            {
              "internalType": "address",
              "name": "sender",
              "type": "address"
            },
            {
              "internalType": "address",
              "name": "receiver",
              "type": "address"
            },
            {
              "internalType": "string",
              "name": "contentHash",
              "type": "string"
            },
            {
              "internalType": "uint256",
              "name": "timestamp",
              "type": "uint256"
            }
          ],
          "internalType": "struct Messaging.Message[]",
          "name": "",
          "type": "tuple[]"
        }
      ],
      "stateMutability": "view",
      "type": "function",
      "constant": true
    }
  ],
  "bytecode": "0x608060405234801561001057600080fd5b50611070806100206000396000f3fe608060405234801561001057600080fd5b506004361061004c5760003560e01c80630d80fefd146100515780635ff6cbf3146100845780636c1fcddf146100a2578063de6f24bb146100d2575b600080fd5b61006b60048036038101906100669190610b4d565b6100ee565b60405161007b9493929190610d10565b60405180910390f35b61008c6101f6565b6040516100999190610d5c565b60405180910390f35b6100bc60048036038101906100b79190610ad0565b61039d565b6040516100c99190610d5c565b60405180910390f35b6100ec60048036038101906100e79190610af9565b6107ad565b005b600081815481106100fe57600080fd5b90600052602060002090600402016000915090508060000160009054906101000a900473ffffffffffffffffffffffffffffffffffffffff16908060010160009054906101000a900473ffffffffffffffffffffffffffffffffffffffff169080600201805461016d90610ef3565b80601f016020809104026020016040519081016040528092919081815260200182805461019990610ef3565b80156101e65780601f106101bb576101008083540402835291602001916101e6565b820191906000526020600020905b8154815290600101906020018083116101c957829003601f168201915b5050505050908060030154905084565b60606000805480602002602001604051908101604052809291908181526020016000905b8282101561039457838290600052602060002090600402016040518060800160405290816000820160009054906101000a900473ffffffffffffffffffffffffffffffffffffffff1673ffffffffffffffffffffffffffffffffffffffff1673ffffffffffffffffffffffffffffffffffffffff1681526020016001820160009054906101000a900473ffffffffffffffffffffffffffffffffffffffff1673ffffffffffffffffffffffffffffffffffffffff1673ffffffffffffffffffffffffffffffffffffffff1681526020016002820180546102f990610ef3565b80601f016020809104026020016040519081016040528092919081815260200182805461032590610ef3565b80156103725780601f1061034757610100808354040283529160200191610372565b820191906000526020600020905b81548152906001019060200180831161035557829003601f168201915b505050505081526020016003820154815250508152602001906001019061021a565b50505050905090565b60606000805b600080549050811015610471578373ffffffffffffffffffffffffffffffffffffffff1660008281548110610401577f4e487b7100000000000000000000000000000000000000000000000000000000600052603260045260246000fd5b906000526020600020906004020160010160009054906101000a900473ffffffffffffffffffffffffffffffffffffffff1673ffffffffffffffffffffffffffffffffffffffff16141561045e57818061045a90610f25565b9250505b808061046990610f25565b9150506103a3565b5060008167ffffffffffffffff8111156104b4577f4e487b7100000000000000000000000000000000000000000000000000000000600052604160045260246000fd5b6040519080825280602002602001820160405280156104ed57816020015b6104da610947565b8152602001906001900390816104d25790505b5090506000805b6000805490508110156107a1578573ffffffffffffffffffffffffffffffffffffffff1660008281548110610552577f4e487b7100000000000000000000000000000000000000000000000000000000600052603260045260246000fd5b906000526020600020906004020160010160009054906101000a900473ffffffffffffffffffffffffffffffffffffffff1673ffffffffffffffffffffffffffffffffffffffff16141561078e57600081815481106105da577f4e487b7100000000000000000000000000000000000000000000000000000000600052603260045260246000fd5b90600052602060002090600402016040518060800160405290816000820160009054906101000a900473ffffffffffffffffffffffffffffffffffffffff1673ffffffffffffffffffffffffffffffffffffffff1673ffffffffffffffffffffffffffffffffffffffff1681526020016001820160009054906101000a900473ffffffffffffffffffffffffffffffffffffffff1673ffffffffffffffffffffffffffffffffffffffff1673ffffffffffffffffffffffffffffffffffffffff1681526020016002820180546106af90610ef3565b80601f01602080910402602001604051908101604052809291908181526020018280546106db90610ef3565b80156107285780601f106106fd57610100808354040283529160200191610728565b820191906000526020600020905b81548152906001019060200180831161070b57829003601f168201915b50505050508152602001600382015481525050838381518110610774577f4e487b7100000000000000000000000000000000000000000000000000000000600052603260045260246000fd5b6020026020010181905250818061078a90610f25565b9250505b808061079990610f25565b9150506104f4565b50819350505050919050565b600060405180608001604052803373ffffffffffffffffffffffffffffffffffffffff1681526020018473ffffffffffffffffffffffffffffffffffffffff16815260200183815260200142815250908060018154018082558091505060019003906000526020600020906004020160009091909190915060008201518160000160006101000a81548173ffffffffffffffffffffffffffffffffffffffff021916908373ffffffffffffffffffffffffffffffffffffffff16021790555060208201518160010160006101000a81548173ffffffffffffffffffffffffffffffffffffffff021916908373ffffffffffffffffffffffffffffffffffffffff16021790555060408201518160020190805190602001906108cf92919061099b565b506060820151816003015550508173ffffffffffffffffffffffffffffffffffffffff163373ffffffffffffffffffffffffffffffffffffffff167f7e49d574e0305424aa957cb3f69b25f92aa58d53fdee73f05e40019210a70bce834260405161093b929190610d7e565b60405180910390a35050565b6040518060800160405280600073ffffffffffffffffffffffffffffffffffffffff168152602001600073ffffffffffffffffffffffffffffffffffffffff16815260200160608152602001600081525090565b8280546109a790610ef3565b90600052602060002090601f0160209004810192826109c95760008555610a10565b82601f106109e257805160ff1916838001178555610a10565b82800160010185558215610a10579182015b82811115610a0f5782518255916020019190600101906109f4565b5b509050610a1d9190610a21565b5090565b5b80821115610a3a576000816000905550600101610a22565b5090565b6000610a51610a4c84610ddf565b610dae565b905082815260208101848484011115610a6957600080fd5b610a74848285610eb1565b509392505050565b600081359050610a8b8161100c565b92915050565b600082601f830112610aa257600080fd5b8135610ab2848260208601610a3e565b91505092915050565b600081359050610aca81611023565b92915050565b600060208284031215610ae257600080fd5b6000610af084828501610a7c565b91505092915050565b60008060408385031215610b0c57600080fd5b6000610b1a85828601610a7c565b925050602083013567ffffffffffffffff811115610b3757600080fd5b610b4385828601610a91565b9150509250929050565b600060208284031215610b5f57600080fd5b6000610b6d84828501610abb565b91505092915050565b6000610b828383610c8f565b905092915050565b610b9381610e75565b82525050565b610ba281610e75565b82525050565b6000610bb382610e1f565b610bbd8185610e42565b935083602082028501610bcf85610e0f565b8060005b85811015610c0b5784840389528151610bec8582610b76565b9450610bf783610e35565b925060208a01995050600181019050610bd3565b50829750879550505050505092915050565b6000610c2882610e2a565b610c328185610e53565b9350610c42818560208601610ec0565b610c4b81610ffb565b840191505092915050565b6000610c6182610e2a565b610c6b8185610e64565b9350610c7b818560208601610ec0565b610c8481610ffb565b840191505092915050565b6000608083016000830151610ca76000860182610b8a565b506020830151610cba6020860182610b8a565b5060408301518482036040860152610cd28282610c1d565b9150506060830151610ce76060860182610cf2565b508091505092915050565b610cfb81610ea7565b82525050565b610d0a81610ea7565b82525050565b6000608082019050610d256000830187610b99565b610d326020830186610b99565b8181036040830152610d448185610c56565b9050610d536060830184610d01565b95945050505050565b60006020820190508181036000830152610d768184610ba8565b905092915050565b60006040820190508181036000830152610d988185610c56565b9050610da76020830184610d01565b9392505050565b6000604051905081810181811067ffffffffffffffff82111715610dd557610dd4610fcc565b5b8060405250919050565b600067ffffffffffffffff821115610dfa57610df9610fcc565b5b601f19601f8301169050602081019050919050565b6000819050602082019050919050565b600081519050919050565b600081519050919050565b6000602082019050919050565b600082825260208201905092915050565b600082825260208201905092915050565b600082825260208201905092915050565b6000610e8082610e87565b9050919050565b600073ffffffffffffffffffffffffffffffffffffffff82169050919050565b6000819050919050565b82818337600083830152505050565b60005b83811015610ede578082015181840152602081019050610ec3565b83811115610eed576000848401525b50505050565b60006002820490506001821680610f0b57607f821691505b60208210811415610f1f57610f1e610f9d565b5b50919050565b6000610f3082610ea7565b91507fffffffffffffffffffffffffffffffffffffffffffffffffffffffffffffffff821415610f6357610f62610f6e565b5b600182019050919050565b7f4e487b7100000000000000000000000000000000000000000000000000000000600052601160045260246000fd5b7f4e487b7100000000000000000000000000000000000000000000000000000000600052602260045260246000fd5b7f4e487b7100000000000000000000000000000000000000000000000000000000600052604160045260246000fd5b6000601f19601f8301169050919050565b61101581610e75565b811461102057600080fd5b50565b61102c81610ea7565b811461103757600080fd5b5056fea2646970667358221220f44e08a4da9dcdf4a5b62194459cc070a254ff98e9de258d4765669b97b0e1cf64736f6c63430008000033",
  "immutableReferences": {},
  "source": "// SPDX-License-Identifier: MIT\r\npragma solidity ^0.8.0;\r\n\r\ncontract Messaging {\r\n    struct Message {\r\n        address sender;\r\n        address receiver;\r\n        string contentHash;  // Store the IPFS hash of the encrypted message\r\n        uint256 timestamp;\r\n    }\r\n\r\n    Message[] public messages;\r\n\r\n    event MessageSent(address indexed sender, address indexed receiver, string contentHash, uint256 timestamp);\r\n\r\n    function sendMessage(address _receiver, string memory _contentHash) public {\r\n        messages.push(Message({\r\n            sender: msg.sender,\r\n            receiver: _receiver,\r\n            contentHash: _contentHash,\r\n            timestamp: block.timestamp\r\n        }));\r\n        emit MessageSent(msg.sender, _receiver, _contentHash, block.timestamp);\r\n    }\r\n\r\n    // Get all messages\r\n    function getMessages() public view returns (Message[] memory) {\r\n        return messages;\r\n    }\r\n\r\n    // Get messages for a specific receiver (only the receiver's messages)\r\n    function getMessagesForReceiver(address _receiver) public view returns (Message[] memory) {\r\n        uint256 count = 0;\r\n        for (uint256 i = 0; i < messages.length; i++) {\r\n            if (messages[i].receiver == _receiver) {\r\n                count++;\r\n            }\r\n        }\r\n\r\n        Message[] memory receiverMessages = new Message[](count);\r\n        uint256 index = 0;\r\n        for (uint256 i = 0; i < messages.length; i++) {\r\n            if (messages[i].receiver == _receiver) {\r\n                receiverMessages[index] = messages[i];\r\n                index++;\r\n            }\r\n        }\r\n\r\n        return receiverMessages;\r\n    }\r\n}\r\n\r\n",
  "sourcePath": "C:\\Users\\Ganesh\\Desktop\\hacksol\\contracts\\Messaging.sol",
  "compiler": {
    "name": "solc",
    "version": "0.8.0+commit.c7dfd78e.Emscripten.clang"
  },
  "schemaVersion": "3.4.16",
  "updatedAt": "2024-09-14T21:26:04.100Z",
  "networkType": "ethereum",
  "devdoc": {
    "kind": "dev",
    "methods": {},
    "version": 1
  },
  "userdoc": {
    "kind": "user",
    "methods": {},
    "version": 1
  }
}